:1070000063C0000053C2000051C200004FC2000024
:107010004DC200004BC2000049C2000047C2000040
:1070200045C2000043C2000081C400003FC200000E
:107030003DC200003BC2000039C2000037C2000060
:1070400035C20000B6C2000031C200002FC20000ED
:107050002DC200002BC2000029C2000027C2000080
:1070600025C2000023C2000021C200001FC2000090
:107070001DC200001BC2000019C2000017C20000A0
:1070800015C2000013C2000011C200000FC20000B0
:107090000DC200000BC2000009C2000007C20000C0
:1070A00005C2000003C2000001C200004C55464169
:1070B00043444387951E1201100102000040412302
:1070C000370000010102000184B78093D101809153
:1070D000FE0A9091FF0A9093D3018093D20111246C
:1070E0001FBECFEFDAE0DEBFCDBF11E0A0E0B1E020
:1070F000E0E2FDE702C005900D92AC3AB107D9F786
:1071000021E0ACEAB1E001C01D92A03DB207E1F779
:1071100001D004C614BE88E1809360001092600024
:1071200080E880936100109261001092FF0A109233
:10713000FE0AE0E0F0E0259134918091D1012F3FEB
:107140003F4FE1F09FEF9093AC01982F957009F0BD
:10715000ACC19091D201973789F081FF0DC087E7CC
:1071600097E79093FF0A8093FE0A83E1A0D1809174
:10717000D0018111FCCF99C183FD97C180688093B4
:10718000D10181E085BFC2E0C5BF88E08093B30133
:10719000B0D38FE097E29093890080938800C093EA
:1071A0006F008BE08093810088EC81D154E0752ED4
:1071B00063E0262E79E0572EA12CB12C88248394ED
:1071C000912C8091D001882309F464C17092E90068
:1071D0008091E80082FF5CC1A2D1082F853419F4A8
:1071E0008CE065D107C088E8800F823010F004354C
:1071F00021F495D18DE0BAD137C10035D9F30C34E3
:10720000C9F3043721F481E9B1D180E0F4CF01362C
:1072100011F489E5F0CF0134B1F481D1C82F809306
:10722000D7017DD18093D601CC1FCC27CC1FCBBFFB
:107230008091D6019091D701880F991F9093D50125
:107240008093D401D7CF003711F483E5D4CF033531
:1072500021F467E08CEA90E70BC0063521F482E365
:1072600085D184E3C8CF033729F463E083EB90E74B
:107270008ED1FAC0053681F4E0E0F0E7E058F1097C
:10728000F89420925700E895789407B600FCFDCF5B
:107290003097A1F71ED1AECF023711F4F4010DC023
:1072A000063411F4F50109C00E3419F4E3E0F0E0FE
:1072B00004C0013531F4E2E0F0E0509257008491CF
:1072C0009ACF023631F489E551D180E04FD180E880
:1072D00092CF023419F0073609F0C3C020D1F82E3E
:1072E0001ED1E82EE7011BD1182F21E0863429F0AA
:1072F00020E0853421F18FE37ECFF1E8EF16F10431
:10730000D0F58091D6019091D7013FEFE31AF30AAF
:10731000F694E794AC0141505109E40EF51EE816CD
:10732000F90648F18E259F258078892B21F581E08B
:10733000E11448E3F40608F080E0682E1AC081E00A
:10734000E81684E0F806B8F44091D6015091D701D0
:10735000411594E0590778F4CA0101978E0D9F1DDD
:107360008417950740F031E08115944008F030E033
:10737000632E619401C0612CE090D401F090D5019E
:1073800081E0023409F080E0382E3222362009F103
:10739000F70183E0A5D01DC0023409F02DC01634DA
:1073A000F9F4BDD0C82EBBD0D82E662061F0F89479
:1073B000E091D401F091D50131E0060130935700FE
:1073C000E895112478946E0142E0C41AD10893D054
:1073D000E6016E0191E0C91AD1082097E9F62EC0A6
:1073E0006620A9F3F8949BD0682F8091D6019091E4
:1073F000D70182D47894EBCF1634A9F4662041F0FB
:10740000E091D401F091D50185919491D92E03C0DA
:107410008FEFDD24DA94AAD08D2DA8D06E0182E002
:10742000C81AD108D4CF662031F08091D60190914E
:10743000D7015AD401C08FEF99D0C9CF332041F082
:1074400085E04ED046D0EF2819F4EFEFE093AC0181
:10745000F999FECF023411F48DE088D088EC27D062
:1074600003C00B3109F047CF2092E900C091E8003A
:107470006DD081110DC0C5FF08C07092E9008091E8
:10748000E8008B778093E80003C060D08823A9F3DD
:1074900012D497CE8FE99FE00197F1F700C000006A
:1074A0008091E00081608093E00006D0A9CDF8943F
:1074B0008093D00178940895F89410926F00109200
:1074C000810081E085BF15BE8091D101282E0C94EA
:1074D0000000F89481E180935700E895789408952E
:1074E000F894F89480935700E8957894789407B6C8
:1074F00000FCFDCF08958091D6019091D7010196AF
:107500009093D7018093D601880F991F9093D5014E
:107510008093D401892B11F481E08BBF089584E01E
:107520008093E9008091E80085FD0DC08091E8001E
:107530008B778093E8008091E80082FDF3CF8EB3D3
:107540008111F9CF02C08091F10008958091E80087
:107550008E778093E8008091E80080FD05C08EB3AF
:107560008111F9CF8FEF089580E00895CF93C82F50
:1075700083E08093E9008091E80085FF03C0C09319
:10758000F10003C0E3DF8823D1F3CF9108950F9377
:107590001F93CF93C62F8C01CC2339F0F80184912F
:1075A000E5DFC1500F5F1F4FF7CFCF911F910F91B4
:1075B00008951F920F920FB60F9211248F939F93ED
:1075C0009091AC018091D001892329F08091D00164
:1075D00081508093D0019F918F910F900FBE0F909B
:1075E0001F90189542E061EC82E017D142E161E81A
:1075F00083E013D142E160E884E00FC18091C801CB
:107600008132D1F48091C901803271F48091E80017
:10761000877F8093E80067E070E08DEA91E0BFD05B
:107620008091E8008E771BC08232D9F48091E80007
:10763000877F8093E80005C1813A99F48091C90160
:10764000813279F48091E800877F8093E80067E0D9
:1076500070E08DEA91E046D08091E8008B778093CE
:10766000E8000895FC012081211109C0FB0124914B
:10767000DC01215020F084918D933196FACF08954A
:10768000CF93DF93EA01913051F466EB70E784EB1E
:1076900091E0E8DF8091B40124EB31E01DC092302D
:1076A00061F09330B1F4882361F0813071F0823061
:1076B00081F48EE220E031E00FC08EE32EE631E06F
:1076C0000BC084E02AE631E007C088E320E331E024
:1076D00003C080E020E030E03983288390E0DF9130
:1076E000CF9108952091CE013091CF012617370711
:1076F00048F06115710539F42091E8002E77209348
:10770000E80001C0B901FC0120E06115710579F1C3
:107710008EB38823F1F18530F1F18091E80083FD8B
:107720003CC08091E80082FD2EC08091E80080FF7F
:10773000ECCF2091F3008091F20090E0922B611544
:10774000710551F08034910538F421912093F100B6
:10775000615071090196F3CF21E08034910509F061
:1077600020E08091E8008E778093E800CECF211151
:10777000CFCF09C08EB3882361F0853061F080914E
:10778000E80083FD0AC08091E80082FFF3CF80E02B
:10779000089582E0089583E0089581E008956115D9
:1077A000710529F42091E8002B772093E800FC0173
:1077B0006115710531F18EB3882359F1853059F186
:1077C0008091E80083FD23C08091E80082FFF0CF24
:1077D0002091F3008091F20090E0922B892B31F000
:1077E0008091F10081936150710991F78091E800D7
:1077F0008B778093E800DCCF8EB3882351F08530FF
:1078000051F08091E80080FFF7CF80E0089581E09B
:10781000089582E0089583E008958F708093E900D1
:10782000EBEEF0E0808181608083EDEEF0E010828D
:107830006093EC0040838091EE00881F8827881FAA
:1078400008958091C80187FF0FC08091E80082FDF4
:1078500004C08EB38111F9CF10C08091E8008B77FE
:107860000AC08EB3882349F08091E80080FFF9CFE9
:107870008091E8008E778093E80008950F931F931E
:10788000CF93DF9346D04DD0C8EDD0E088818F777D
:10789000888388818068888388818F7D888319BCEC
:1078A0001EBA1092C60100EE10E0F80180818B7FB5
:1078B000808388818160888342E360E080E0ADDF7F
:1078C000E1EEF0E080818E7F8083E2EEF0E0808167
:1078D00081608083808188608083F80180818E7FD1
:1078E0008083888180618883DF91CF911F910F9180
:1078F0000895E8EDF0E080818F7E8083E7EDF0E091
:1079000080818160808384E082BF81E08093C701B1
:10791000B5CFE8EDF0E080818E7F80831092E200A9
:1079200008951092DA001092E10008951F920F92CC
:107930000FB60F9211242F933F934F935F936F9342
:107940007F938F939F93AF93BF93EF93FF93809118
:10795000DA0080FF1BC08091D80080FF17C08091A3
:10796000DA008E7F8093DA008091D90080FF0BC00F
:1079700080E189BD82E189BD09B400FEFDCF81E0CF
:107980008EBB98D103C019BC1EBA94D18091E1007E
:1079900080FF17C08091E20080FF13C08091E20059
:1079A0008E7F8093E2008091E20080618093E2000C
:1079B0008091D80080628093D80019BC85E08EBB8E
:1079C00079D18091E10084FF2EC08091E20084FF94
:1079D0002AC080E189BD82E189BD09B400FEFDCFE6
:1079E0008091D8008F7D8093D8008091E1008F7EB8
:1079F0008093E1008091E2008F7E8093E20080918D
:107A0000E20081608093E2008091C601882311F03A
:107A100084E007C08091E30087FD02C081E001C0DF
:107A200083E08EBB47D18091E10083FF21C080912C
:107A3000E20083FF1DC08091E100877F8093E10019
:107A400082E08EBB1092C6018091E1008E7F809310
:107A5000E1008091E2008E7F8093E2008091E2005D
:107A600080618093E20042E360E080E0D6DE22D1D4
:107A7000FF91EF91BF91AF919F918F917F916F9106
:107A80005F914F913F912F910F900FBE0F901F90DC
:107A900018951F93CF93DF9300D0CDB7DEB7E8ECF6
:107AA000F1E080ED91E02091F10021938E179F0786
:107AB000D1F7A4DD8091E80083FFE8C08091C80180
:107AC0009091C901953009F46FC030F4913071F193
:107AD00068F0933059F1DAC0983009F4A8C09930B1
:107AE00009F4B4C0963009F0D1C07FC0803899F055
:107AF000823809F0CBC08091CC018F70873008F0BC
:107B0000C5C08093E9008091EB0085FB882780F950
:107B10001092E90001C080E09091E800977F909377
:107B2000E8008093F1001092F1008CC0282F2D7F87
:107B300009F0ACC0823009F0A9C08091CA0181115E
:107B40002AC08091CC018F702FEF280F263008F0CB
:107B50009DC08093E9002091EB0020FF1CC0933072
:107B600021F48091EB00806214C09091EB00906151
:107B70009093EB0021E030E0A90102C0440F551FB3
:107B80008A95E2F74093EA001092EA008091EB00B8
:107B900088608093EB001092E9008091E800877F75
:107BA0008093E8004EDE72C0811170C01091CA014E
:107BB0001F778091E3008078812B8093E300809190
:107BC000E800877F8093E8003CDE8091E80080FF3A
:107BD000FCCF8091E30080688093E300111102C024
:107BE00082E001C083E08EBB51C08058823008F033
:107BF0004DC06091CC017091CD01AE014F5F5F4FE0
:107C00008091CA019091CB013BDDBC01892B09F425
:107C10003DC09091E800977F9093E80089819A8118
:107C200061DD8091E8008B778093E8002FC0803879
:107C300069F58091E800877F8093E8008091C60114
:107C40008093F1008091E8008E77AACF81111EC049
:107C50008091CA019091CB0199270297BCF4809141
:107C6000E800877F8093E8008091CA018093C60175
:107C7000E8DD8091C601811106C08091E30087FD97
:107C800002C081E001C084E08EBBACDC8091E800E2
:107C900083FF0AC08091E800877F8093E80080918D
:107CA000EB0080628093EB000F900F90DF91CF91FB
:107CB0001F9108950895CF938EB3882399F0C091B2
:107CC000E900CF709091EC00892F817090FD80E8E1
:107CD000C82B1092E9008091E80083FDDADECF70B6
:107CE000C093E900CF910895F999FECF92BD81BD6F
:107CF000F89A992780B50895262FF999FECF92BD5D
:107D000081BDF89A019700B4021639F01FBA20BD60
:107D10000FB6F894FA9AF99A0FBE0895F894FFCF27
:107D20002E03500072006F00640075006300740041
:107D300020004E0061006D006500200047006F00CC
:107D400065007300200048006500720065000000B7
:107D500038034D0061006E0075006600610063002D
:107D60007400750072006500720020004E00610012
:107D70006D006500200047006F0065007300200063
:107D80004800650072006500000004030904090250
:107D90003E000201008032090400000102020100DD
:107DA0000524001001042402020524060001070531
:107DB00082030800FF09040100020A000000070511
:0C7DC000040210000507058302100005F6
:087FF800B670000000DFFBDCA5
:040000030000700089
:00000001FF
